:020000040800F2
:1000000068450020AD030008B5030008B7030008E9
:10001000B9030008BB030008BD030008000000008E
:10002000000000000000000000000000BF03000806
:10003000C103000800000000C3030008C503000856
:10004000C7030008C7030008C7030008C703000868
:10005000C7030008C7030008C7030008C703000858
:10006000C7030008C7030008C7030008C703000848
:10007000C7030008C7030008C7030008C703000838
:10008000C7030008C7030008C7030008C703000828
:10009000C7030008C7030008C7030008C703000818
:1000A000C7030008C7030008C7030008C703000808
:1000B000C70300082F080008C7030008C70300088B
:1000C000C7030008C7030008C7030008C7030008E8
:1000D000C7030008DB15000801160008C703000865
:1000E000C7030008C7030008C7030008000000009A
:1000F00000000000C703000800F002F800F095F8C7
:100100000AA090E8000C82448344AAF10107DA4572
:1001100001D100F08AF8AFF2090EBAE80F0013F02F
:10012000010F18BFFB1A43F001031847D4960000D3
:10013000F4960000103A24BF78C878C1FAD8520764
:1001400024BF30C830C144BF04680C607047000051
:100150000023002400250026103A28BF78C1FBD8D0
:10016000520728BF30C148BF0B6070476E2905F0A9
:100170006A86702905F09B81662908F0AA8765299F
:1001800008F0A787672908F0A487612908F0A387EA
:1001900003681B0A28BF41F08001692905F00C8122
:1001A000642905F00981752905F006816F2906F09B
:1001B0007881782905F06781E92906F01381E4291F
:1001C00006F01081F52906F00D81EF2906F0758102
:1001D000F82905F066810368DB0928BF41F080013A
:1001E000632906F08280732906F08780E32906F0F0
:1001F0006382F32906F06882002070471FB505F07E
:1002000091FD04000020002108F0B6F8401C606059
:100210000020002108F0C6F8E0600020002108F06E
:1002200095F820611FBD10B510BD06F0E7FA114624
:10023000FFF7E4FF00F008F806F084FC03B4FFF7D2
:10024000F2FF03BC01F0BAF90026002400250027C4
:1002500000F052F900F0C6F900F04AFA002000F070
:10026000B7FB4FF4E13001F03BF94FF4E13001F01E
:10027000FAF904F036FF03F0C4F82FA22FA133A03F
:1002800002F048FD324933A002F08DFD52E000201B
:1002900000F04DFA012804D0022807D003280FD11E
:1002A00009E02B492BA002F07EFD0AE00126002484
:1002B00000F0FEFE05E00026002401F006F800E054
:1002C00000BF00BFB7F57A7F2FD100F0D6F9002725
:1002D000601CC4B23C2C0ED10024681CC5B20A2D8F
:1002E00000DD00250A2D06D125A004F0F3FF1849F2
:1002F00018A002F058FD0A2094FBF0F100FB114019
:1003000001280DD123A004F0E5FF0EB9012000E083
:100310000020064616B100F0CBFE01E000F0D5FF4C
:10032000224629461EA004F0D5FF781C87B2012082
:1003300000F01FF9ABE700003434330034372E31BE
:1003400030322E3131372E323533000053534C00CA
:10035000072E000868747470733A2F2F6C61622E38
:1003600069736161636C696E2E636E2F6E436F56A5
:100370002F6170692F6F766572616C6C00000000F0
:10038000BFAACABCB8FCD0C2D2DFC7E9CAFDBEDD75
:100390000D0A0000C7D0BBBBCFD4CABE0D0A0000F7
:1003A0002532643A2532640D0A000000094880476E
:1003B00009480047FEE7FEE7FEE7FEE7FEE7FEE747
:1003C000FEE7FEE7FEE7FEE704480549054A064B5F
:1003D000704700008B040008F9000008683F002007
:1003E00068450020684100206841002000203D4908
:1003F000096841F001013B4A116000BF39490968B1
:1004000001F002010029F9D04FF48061354A5160B2
:100410001146496821F4803151601146096821F084
:10042000807111601146096821F0F8411160114690
:10043000096841F0E051116013212B4A11602949EC
:10044000096841F08071274A116000BF2549096899
:1004500001F000710029F9D02249496821F0030117
:10046000204A51601146496841F00201516005E09F
:100470001C494968C1F3870000F003000228F7D146
:10048000704710B5FFF7B2FF10BD10B515480068F2
:1004900040F00100134908600846406813490840CD
:1004A0001049486008460068114908400D49086035
:1004B0000846006820F4802008600846406820F460
:1004C000FE00486008460068C0F3130008604FF45F
:1004D0001F008860FFF7D5FF4FF0006005490860F6
:1004E00010BD000000100240002002400C00FFF888
:1004F000FFFFF6FE08ED00E010B56FF0040001F01C
:1005000001FB2E4800682E49B0FBF1F02D49087020
:100510000846007800EB4001C1EBC0104FF6FF71B8
:1005200001EAC0002849088010BD0146254A12781A
:100530004A434FF0E0235A6100229A611A46126939
:1005400042F001021A6100BF4FF0E022106900F092
:1005500001021AB100F48032002AF5D04FF0E022F7
:10056000126922F001024FF0E0231A6100229A6121
:1005700070470146144A12884A434FF0E0235A61FB
:1005800000229A611A46126942F001021A6100BF04
:100590004FF0E022106900F001021AB100F480323D
:1005A000002AF5D04FF0E022126922F001024FF04C
:1005B000E0231A6100229A617047000000000020C9
:1005C00000127A0014000020160000200120434988
:1005D00008604349C1F8A801424908604049C1F890
:1005E000B001704708B50121042001F0ECFC0121A5
:1005F000102001F0E8FC10208DF8030003208DF896
:1006000002004FF40040ADF800006946364801F0A2
:10061000FBF84FF4E050ADF800006946334801F0B4
:10062000F3F8FFF7D3FF08BD012806D002280BD04E
:10063000032811D004281ED115E009B1012200E0E1
:100640000022264B1A6016E009B1012200E00022C8
:10065000244B1B1F1A600EE009B1012200E00022AA
:10066000204B1A6007E009B1012200E000221D4B77
:100670001B1D1A6000BF00BF704710B54FF400414A
:10068000194801F061F928B94FF40041164801F00A
:1006900068F904E04FF40041134801F064F910BD1B
:1006A00010B504464FF400410F4801F05AF94FF4D9
:1006B000E0510E4801F055F92046FFF75AFF4FF47C
:1006C0000041094801F04FF94FF4E051074801F0AB
:1006D0004AF92046FFF74DFF10BD0000BC01214242
:1006E00000002242AC0122420008014000100140FB
:1006F00008B50121082001F066FC0121084601F03F
:1007000062FC40F60440ADF8000048208DF803007C
:1007100069462D4801F078F80220ADF80000282045
:100720008DF803006946284801F06EF808BD10B541
:10073000044614B10120254908702448007860B3AC
:100740002348006801280BD02148001D006838B1FB
:100750001F482430006818B11D4828300068E0B9EF
:100760000A20FFF706FF00201849087018480068A3
:10077000012800D110BD1648001D006808B90220EC
:10078000F8E713482430006808B90320F2E710485E
:1007900028300068A8B90420ECE70D48006880B94B
:1007A0000B48001D006801280BD10948243000685F
:1007B000012806D1064828300068012801D10349E4
:1007C00008700020D6E70000000C0140180000204F
:1007D000048121427FB505460C460121022001F02B
:1007E000FFFBADF80850ADF804400020ADF80A005A
:1007F000ADF8060001A9184801F02AFD01221146B2
:10080000154801F0ACFF1D208DF8000000208DF888
:10081000010003208DF8020001208DF803006846D6
:1008200001F01FF901210C4801F07EFF7FBD10B5DA
:100830000121094802F05AFA68B10848008840F4DA
:100840000040064908800121034802F060FA0021B7
:10085000014801F069FF10BD0004004020000020A5
:100860000021082115E000F080021AB10122FC4BA2
:100870001A6002E00022FA4B1A600022F84B1B1D9E
:100880001A600122F74BC3F884214206100E4A1E5B
:10089000D1B20029E7DC704710B504460020F049CA
:1008A000343108600120EF49C1F8BC012012FFF784
:1008B000D7FFE0B2FFF7D4FF0120E94934310860E7
:1008C00010BD10B504460020E54934310860E54903
:1008D000C1F8BC012046FFF7C3FF0120E0493431D5
:1008E000086010BD10B504460020DD4934310860B1
:1008F0000120DC49C1F8BC012046FFF7B1FF01200F
:10090000D7493431086010BDF0B504460D4616468F
:100910001F462A20FFF7D5FF0020FFF7E3FFA11CA9
:10092000C8B2FFF7DFFF0020FFF7DCFFB11CC8B241
:10093000FFF7D8FF2B20FFF7C4FF0020FFF7D2FFFF
:10094000691CC8B2FFF7CEFF0020FFF7CBFF791C70
:10095000C8B2FFF7C7FF2C20FFF7B3FFF0BD70B59B
:1009600006467F239F2200210846FFF7CDFF2C205B
:10097000FFF7A7FF00240AE0002504E03046FFF758
:100980008BFF681CC5B2802DF8DB601CC4B2A02CA4
:10099000F2DB70BD08B50121182001F014FB102016
:1009A0008DF8030003208DF802004EF20300ADF82D
:1009B00000006946AC4800F027FF0120ADF80000B8
:1009C0006946AA4800F020FF0020A949086008BD38
:1009D00010B50446FFF7DEFF0120A549086000209E
:1009E000A049C1F8B8016420FFF7C3FD01209C496C
:1009F000383108606420FFF7BCFD1120FFF761FF6C
:100A00007820FFF7B6FDB120FFF75BFF0120FFF76D
:100A100069FF2C20FFF766FF2D20FFF763FFB22050
:100A2000FFF74FFF0120FFF75DFF2C20FFF75AFF74
:100A30002D20FFF757FFB320FFF743FF0120FFF7FB
:100A400051FF2C20FFF74EFF2D20FFF74BFF012019
:100A5000FFF748FF2C20FFF745FF2D20FFF742FF4F
:100A6000B420FFF72EFF0720FFF73CFFC020FFF761
:100A700028FFA220FFF736FF0220FFF733FF842074
:100A8000FFF730FFC120FFF71CFFC520FFF72AFF4B
:100A9000C220FFF716FF0A20FFF724FF0020FFF710
:100AA00021FFC320FFF70DFF8A20FFF71BFF2A203D
:100AB000FFF718FFC420FFF704FF8A20FFF712FF9B
:100AC000EE20FFF70FFFC520FFF7FBFE0E20FFF71C
:100AD00009FF3620FFF7F5FEA020FFF703FFE02017
:100AE000FFF7EFFE0F20FFF7FDFE1A20FFF7FAFEDB
:100AF0000F20FFF7F7FE1820FFF7F4FE2F20FFF777
:100B0000F1FE2820FFF7EEFE2020FFF7EBFE22206B
:100B1000FFF7E8FE1F20FFF7E5FE1B20FFF7E2FED0
:100B20002320FFF7DFFE3720FFF7DCFE0020FFF772
:100B3000D9FE0720FFF7D6FE0220FFF7D3FE1020D4
:100B4000FFF7D0FEE120FFF7BCFE0F20FFF7CAFE43
:100B50001B20FFF7C7FE0F20FFF7C4FE1720FFF78B
:100B6000C1FE3320FFF7BEFE2C20FFF7BBFE29207D
:100B7000FFF7B8FE2E20FFF7B5FE3020FFF7B2FEDC
:100B80003020FFF7AFFE3920FFF7ACFE3F20FFF724
:100B9000A9FE0020FFF7A6FE0720FFF7A3FE032013
:100BA000FFF7A0FE1020FFF79DFE2A20FFF789FE29
:100BB0000020FFF797FE0020FFF794FE0020FFF7CC
:100BC00091FE7F20FFF78EFE2B20FFF77AFE00209C
:100BD000FFF788FE0020FFF785FE0020FFF782FE6A
:100BE0009F20FFF77FFEF020FFF76BFE0120FFF74D
:100BF00079FEF620FFF765FE0020FFF773FE3A202E
:100C0000FFF75FFE0520FFF76DFE2920FFF759FE75
:100C10002046FFF7A4FE10BD30B505460C46284619
:100C2000FFF74FFE2046FFF75DFE30BD30B50446AE
:100C30000D462B46224629462046FFF765FE30BD6D
:100C400070B504460D461646681C83B2601C82B21D
:100C500029462046FFF758FE3046FFF71DFE70BDBF
:100C6000800122420000224200100140000C01409D
:100C7000808121422DE9F05F074688461446994657
:100C8000B9F1010F13D108EB040000F0FF0B802C29
:100C900001DD4FF0800B464606E0314638460A9AA1
:100CA000FFF7CEFF701CC6B25E45F6DB14E0B9F16B
:100CB000000F11D1381900F0FF0AA02C01DD4FF010
:100CC000A00A3D4606E0414628460A9AFFF7B8FFCB
:100CD000681CC5B25545F6DBBDE8F09F2DE9F84329
:100CE0000746884614461D46089EE01BC2B20023F4
:100CF000414638460096FFF7BDFFA5EB0800C2B29B
:100D00000123414638460096FFF7B4FFE01BC2B20C
:100D10000023294638460096FFF7ACFFA5EB0800F4
:100D2000C2B20123414620460096FFF7A3FFBDE86B
:100D3000F8832DE9F04106460F4614461D4624B1BE
:100D40002A4639463046FFF77BFFBDE8F0812DE9A2
:100D5000F04704460D46904699462F4617E0264632
:100D600010E0FE4800EBC800791B405C321B80217C
:100D70001141084020B14A4639463046FFF760FF2E
:100D8000701CC6B2A01D8642EBDB781CC7B205F111
:100D900008008742E3DBBDE8F0872DE9F041054616
:100DA0000F46144698462E462EE0207830280BDB5E
:100DB0002078392808DC20783038C2B243463946DA
:100DC0003046FFF7C4FF1CE020782D2806D14346AB
:100DD0000B2239463046FFF7BAFF12E020783A2856
:100DE00006D143460A2239463046FFF7B0FF08E0F5
:100DF0002078202805D143460C2239463046FFF79B
:100E0000A6FF641CB01DC6B220780028CDD1BDE875
:100E1000F0812DE9F04704460D46904699462F464D
:100E200018E0264610E0CE4800EB0810791B405C25
:100E3000321B80211141084020B14A4639463046D4
:100E4000FFF7FEFE701CC6B204F108008642EADB22
:100E5000781CC7B205F110008742E2DBBDE8F087DD
:100E60002DE9F04105460F46144698462E462FE0E0
:100E7000207830280BDB2078392808DC20783038BF
:100E8000C2B2434639463046FFF7C3FF1CE0207824
:100E90002D2806D143460B2239463046FFF7B9FFCD
:100EA00012E020783A2806D143460A2239463046D5
:100EB000FFF7AFFF08E02078202805D143460C2239
:100EC00039463046FFF7A5FF641C06F10800C6B29C
:100ED00020780028CCD1BDE8F08110B50246012071
:100EE00000E050430B1EA1F10104E1B2F9D110BDA5
:100EF0002DE9F047044689469246002C0FDA01207E
:100F00008AF80000604207F010FD054606F09AFCE2
:100F1000074607F0ADFC401C89F800000EE00020F9
:100F20008AF80000204607F000FD074606F08AFC1C
:100F3000054607F09DFC401C89F80000BDE8F087DD
:100F40002DE9FC5F05460E46174699464FF0000B0B
:100F50006A4601A93846FFF7CBFF9DF8000008B1AB
:100F6000784200E038468246002451E09DF80400B3
:100F7000001B401EC1B20A20FFF7AFFFBAFBF0F022
:100F80000A21B0FBF1F201FB1208BBF1000F22D1E4
:100F90009DF80400401EA0421DDDB8F1000F18D1DD
:100FA0009DF8000001280AD1F1B2082202FB045288
:100FB0000832D0B24B460C22FFF72BFF08E0F1B20B
:100FC000082202FB0452D0B24B460C22FFF721FF4D
:100FD0001CE04FF0010B9DF8000001280BD1F1B28D
:100FE000082202FB04520832D0B24FF6FF73424689
:100FF000FFF70FFF09E0F1B2082202FB0452D0B262
:101000004FF6FF734246FFF704FF00BF601CC4B2F7
:101010009DF804008442A9DB9DF80000012806D158
:10102000F1B2E8B24FF6FF730B22FFF7F2FEBDE814
:10103000FC9F2DE9F04704460E46904699463746F8
:1010400030E0254628E0281B082810DA454800EB48
:101050004811B81B11F810002B1B8021194100EA20
:1010600001024B4639462846FFF763FE12E03D4831
:1010700000EB4811B81B012303EB4000085C291B5F
:10108000083980230B4100EA03024B4639462846C3
:10109000FFF74FFE681CC5B204F110008542D2DB99
:1010A000781CC7B206F110008742CADBBDE8F087A2
:1010B00008B50020FFF753FC4FF6FF730622052109
:1010C0001020FFF7B6FF4FF6FF73072205212020FF
:1010D000FFF7AFFF4FF6FF73002205213020FFF727
:1010E000A8FF4FF6FF73012205214020FFF7A1FF63
:1010F0004FF6FF73022205215020FFF79AFF4FF6AB
:10110000FF73032205216020FFF793FF4FF6FF7363
:10111000042205217020FFF78CFF4FF6FF73052294
:1011200011468020FFF785FF4FF6FF7308222E211E
:101130000020FFF77EFF4FF6FF7309222E211020BB
:10114000FFF777FF4FF6FF730C2245210020FFF7D2
:1011500070FF4FF6FF730D22452105E00B9200084A
:1011600053950008739200081020FFF762FF4FF6B6
:10117000FF730A225C210020FFF75BFF4FF6FF732D
:101180000B225C211020FFF754FF4FF6FF73102253
:1011900019213220FFF74DFF4FF6FF73112219215D
:1011A0004220FFF746FF4FF6FF73122219217220EB
:1011B000FFF73FFF4FF6FF73132219218220FFF73D
:1011C00038FF4FF6FF70012355221921009022208D
:1011D000FFF750FD4FF6FF700123552219210090B3
:1011E0006120FFF747FD4FF6FF700023A0222C215E
:1011F00000901846FFF73EFD4FF6FF700023A02237
:10120000412100901846FFF735FD4FF6FF7000238F
:10121000A022582100901846FFF72CFD4FF6FF70D2
:101220000023A0226E2100901846FFF723FDAA4854
:101230004FF6FF732E2102682620FFF781FEA64895
:101240004FF6FF73452142682620FFF779FEA2483A
:101250004FF6FF735C2182682620FFF771FE9E48DF
:101260004FF6FF732E21C2686720FFF769FE9A4888
:101270004FF6FF73452102696720FFF761FE96482C
:101280004FF6FF735C2142696720FFF759FE4FF666
:10129000FF7314226F211220FFF7CBFE4FF6FF736E
:1012A00015226F212220FFF7C4FE4FF6FF7316228E
:1012B0006F213220FFF7BDFE4FF6FF73864A1832CA
:1012C0006F214620FFF7CCFD08BD08B50020FFF7D1
:1012D00046FB4FF6FF730E2205211020FFF7A9FEF3
:1012E0004FF6FF730F2205212020FFF7A2FE4FF6D5
:1012F000FF73002205213020FFF79BFE4FF6FF739E
:10130000012205214020FFF794FE4FF6FF730222D1
:1013100005215020FFF78DFE4FF6FF7303220521B4
:101320006020FFF786FE4FF6FF7304220521702030
:10133000FFF77FFE4FF6FF73052211468020FFF76F
:1013400078FE4FF6FF7308222E210020FFF771FE72
:101350004FF6FF7309222E211020FFF76AFE4FF689
:10136000FF730C2245210020FFF763FE4FF6FF7349
:101370000D2245211020FFF75CFE4FF6FF730A2275
:101380005C210020FFF755FE4FF6FF730B225C2116
:101390001020FFF74EFE4FF6FF7310221921322066
:1013A000FFF747FE4FF6FF73112219214220FFF786
:1013B00040FE4FF6FF73122219217220FFF739FE0B
:1013C0004FF6FF73132219218220FFF732FE4FF6EA
:1013D000FF7001235522192100902220FFF74AFCBB
:1013E0004FF6FF7001235522192100906120FFF76D
:1013F00041FC4FF6FF700023A0222C2100901846DC
:10140000FFF738FC4FF6FF700023A0224121009027
:101410001846FFF72FFC4FF6FF700023A02258213B
:1014200000901846FFF726FC4FF6FF700023A0221D
:101430006E2100901846FFF71DFC28484FF6FF73F9
:101440002E2102682620FFF77BFD24484FF6FF730C
:10145000452142682620FFF773FD20484FF6FF73B1
:101460005C2182682620FFF76BFD1C484FF6FF7356
:101470002E21C2686720FFF763FD18484FF6FF73FF
:10148000452102696720FFF75BFD14484FF6FF73A3
:101490005C2142696720FFF753FD4FF6FF7314226A
:1014A0006F211220FFF7C5FD4FF6FF7315226F2144
:1014B0002220FFF7BEFD4FF6FF7316226F21322068
:1014C000FFF7B7FD4FF6FF73034A18326F2146202E
:1014D000FFF7C6FC08BD0000800A0020AC0A00200F
:1014E00010B586B00446012144F2040000F06BFD03
:1014F0004FF40070ADF8140003208DF8160018208A
:101500008DF8170005A93C4800F07EF94FF4806083
:10151000ADF8140004208DF8170005A9364800F036
:1015200073F901940020ADF810001820ADF80E00FA
:101530000020ADF80C00ADF80A003020ADF808002E
:1015400001A92E4800F0CCFD25208DF800000320D5
:101550008DF801008DF8020001208DF80300684627
:1015600000F07FFA01220221244800F008FE012148
:10157000224800F0F8FD06B010BD0FB430B5CBB076
:10158000044601AD50A800904FF4947101A8009B4F
:101590004F9A03F085FE0020009008E015F8010B3B
:1015A000206000BFA06800F001000028FAD0287871
:1015B0000028F3D14BB030BC5DF814FB014600BFEE
:1015C000704700BF0D4A0832126802F00102002A7B
:1015D000F8D0C2B2094B1A60704710B50221074813
:1015E00000F0F0FD38B1054800F0DEFDC4B2022184
:1015F000024800F0F0FD10BD000801400038014035
:1016000010B502215A4800F0DDFD20B3584800F023
:10161000CBFDC4B20221564800F0DDFD55480088DC
:1016200000F40040B8B953480088B0F5FA6F13DAF7
:101630000021514801F027FB4E48008818B90121CC
:101640004D4801F071F84B4801880088401C494A18
:1016500010804A48445405E04648008840F4004061
:101660004449088010BD10B586B00446012104200D
:1016700000F0A9FC0121480400F0B2FC18208DF80C
:1016800017000420ADF8140003208DF8160005A9FA
:101690003B4800F0B9F804208DF817000820ADF899
:1016A000140003208DF8160005A9354800F0ACF8A9
:1016B00001940020ADF810001820ADF80E000020B5
:1016C000ADF80C00ADF80A003020ADF8080001A913
:1016D000274800F005FD26208DF8000001208DF838
:1016E000030003208DF8010002208DF802006846F7
:1016F00000F0B7F901211E4800F035FD012202215A
:101700001B4800F03CFD42F27F5140F2E730FFF70A
:1017100061F80020174908800021174801F004F8FB
:1017200006B010BD0FB438B505A800901548009A52
:10173000049903F0A3FD00200090124803F0C6FFB7
:1017400085B200240EE000BF09480830006800F0B0
:1017500001000028F8D00B48015D054800F021FD8C
:10176000601C84B2AC42EEDB38BC5DF814FB0000B8
:1017700000440040200000200004004058000020E9
:10178000000801402808002010B50446AF48204456
:1017900048B1B0F5806F0FD0B0F5006F15D0B0F53F
:1017A000406F24D11AE00121042000F026FC002122
:1017B000042000F022FC1BE00121082000F01DFCA9
:1017C0000021082000F019FC12E00121102000F097
:1017D00014FC0021102000F010FC09E00121202061
:1017E00000F00BFC0021202000F007FC00E000BF0F
:1017F00000BF10BD10B50121084600F0FEFB00211E
:10180000012000F0FAFB10BD2DE9F0410246002551
:101810000026002000230024002791F803C00CF0CC
:101820000F0591F803C00CF0100CBCF1000F03D0B1
:1018300091F802C04CEA050591F800C0BCF1000F18
:1018400031D0146800202BE04FF0010C0CFA00F3AB
:10185000B1F800C00CEA03069E4220D183004FF08D
:101860000F0C0CFA03F7BC4305FA03FC4CEA040422
:1018700091F803C0BCF1280F06D14FF0010C0CFA0F
:1018800000FCC2F814C00AE091F803C0BCF1480F94
:1018900005D14FF0010C0CFA00FCC2F810C0401C3E
:1018A0000828D1D31460B1F800C0BCF1FF0F34DDBB
:1018B000546800202EE000F1080C4FF0010808FAEF
:1018C0000CF3B1F800C00CEA03069E4221D183005C
:1018D0004FF00F0C0CFA03F7BC4305FA03FC4CEA7B
:1018E000040491F803C0BCF1280F05D100F1080CE5
:1018F00008FA0CF8C2F8148091F803C0BCF1480F44
:1019000007D100F1080C4FF0010808FA0CF8C2F8F2
:101910001080401C0828CED35460BDE8F0814FF6FB
:10192000FF710180022181700421C170704702465D
:10193000002093680B400BB1012000E000207047AD
:101940000146886880B2704702460020D3680B4089
:101950000BB1012000E0002070470146C86880B24A
:10196000704701617047416170470AB1016100E051
:1019700041617047C16070474FF480320A43826111
:101980008161826182698269704702460020304B22
:1019900018684FF68073184040EA021008432C4B39
:1019A000186070472B49C8617047F0B502460023A4
:1019B000002400200025264E7068C2F3034593B230
:1019C00002F44016B6F5401F05D100BF204E7668E0
:1019D0001F4F7E600FE002F48016B6F5801F04D121
:1019E000032606FA05F4A04305E0560D360103FA76
:1019F00006F6B04300BF21B1560D360103FA06F6D4
:101A00003043134E7060F0BD30B500228B071C0FC1
:101A10000F2303FA04F20E4B08338C1053F82430D2
:101A200093430B4C08348D1044F8253023468C101A
:101A300053F824308C07240F00FA04F42343044C99
:101A400008348D1044F8253030BD000000F8FEBF8A
:101A5000000001400000204234490143344A116033
:101A6000704770B5002100230F22C47804B3304CB6
:101A7000246804F4E064C4F5E064210AC1F10403BD
:101A8000CA40447804FA03F18478144021430901E0
:101A9000284C0678A155047804F01F050124AC40B9
:101AA00005786D11AD0005F1E025C5F8004109E0AC
:101AB000047804F01F050124AC401F4D0678761110
:101AC00045F8264004786411A40004F1E024D4F819
:101AD000003170BD194A0A400243154B1B1F1A60A2
:101AE000704739B1124A121D12680243104B1B1D78
:101AF0001A6006E00E4A121D126882430C4B1B1D31
:101B00001A607047042808D14FF0E021096941F0BC
:101B100004014FF0E022116107E04FF0E021096974
:101B200021F004014FF0E022116170470000FA0536
:101B30000CED00E000E400E080E100E080FFFF1F2A
:101B4000F948006840F00100F7490860084640681D
:101B5000F6490840F449486008460068F4490840DE
:101B6000F14908600846006820F4802008600846B3
:101B7000406820F4FE004860002088607047EA4911
:101B8000096821F48031E84A11601146096821F49E
:101B900080211160B0F5803F03D0B0F5802F0ED1C9
:101BA00006E0E149096841F48031DF4A116007E04D
:101BB000DD49096841F4A021DB4A116000E000BF63
:101BC00000BF704710B501460022002300204A11D3
:101BD000012A02D1D44C236806E0022A02D1D24C59
:101BE000236A01E0D04C636A01F01F020124944093
:101BF0001C400CB1012000E0002010BD38B50020D1
:101C000000900024002500BF3120FFF7DBFF0546D0
:101C10000098401C00901DB90098B0F5A06FF3D15A
:101C20003120FFF7CFFF08B1012400E00024204657
:101C300038BD01460020BC4A106820F0F80040EA98
:101C4000C10010607047012806D1B749096841F00A
:101C50000101B54A116005E0B349096821F00101AD
:101C6000B14A1160704710B503460020AE4C2068A1
:101C7000B04C20408C0644EA02542043AA4C206019
:101C800010BD70B506460C460025A748456825F4EA
:101C90007C153543456024B9032207213046FFF700
:101CA000E2FFB4F5802F04D1012205213046FFF771
:101CB000DAFFB4F5002F04D1012207213046FFF7E7
:101CC000D2FFB4F5402F04D1012209213046FFF79D
:101CD000CAFFB4F5801F04D101220B213046FFF763
:101CE000C2FFB4F5A01F04D101220D213046FFF739
:101CF000BAFFB4F5C01F04D101220F213046FFF70F
:101D0000B2FFB4F5E01F04D1012211213046FFF7E4
:101D1000AAFFB4F5001F04D1012213213046FFF7BA
:101D2000A2FFB4F5101F04D1012215213046FFF7A0
:101D30009AFFB4F5201F04D1012217213046FFF786
:101D400092FFB4F5301F04D1012219213046FFF76C
:101D50008AFFB4F5401F04D101221B213046FFF752
:101D600082FFB4F5501F04D101221D213046FFF738
:101D70007AFFB4F5601F04D101221F213046FFF71E
:101D800072FF70BD30B16849096841F08071664AE0
:101D9000116005E06449096821F08071624A1160B0
:101DA000704701460020604A506820F00300084355
:101DB000506070475C48406800F00C007047014676
:101DC0000020594A506820F0F000084350607047E6
:101DD00001460020544A506820F4E06008435060F7
:101DE000704701460020504A506820F4605040EA95
:101DF000C1005060704759B14B4A92686FF30C02B2
:101E0000494B9A601A46926842EA00229A6005E0BD
:101E1000454A926822EA0022434B9A607047424941
:101E2000496821F44001404A51601146496841EA3D
:101E3000805151607047014600203B4A506820F4B1
:101E40004040084350607047012802D004280ED15A
:101E500006E03549096A41F00101334A116207E0A1
:101E60003149096A41F005012F4A116200E000BFC3
:101E700000BF704730B12C49496A41F001012A4A3C
:101E8000516205E02849496A21F00101264A516260
:101E900070472549096A0143234A1162704730B1EE
:101EA0002149096A41F400411F4A116205E01E49B7
:101EB000096A21F400411C4A11627047F0B5002103
:101EC0000024002300250022174E766806F00C013E
:101ED00021B1042905D008293AD105E0164E066043
:101EE00039E0154E066036E00F4E3668012707EBE5
:101EF00096640D4E3668C6F30256731C0A4E766819
:101F000006F480352DB90D4E6643B6FBF3F6066038
:101F10001DE0054E766806F400369EB1084E664315
:101F2000B6FBF3F6066012E0001002400000FFF876
:101F3000FFFFF6FEFFFF8F0300127A00001BB700C1
:101F400000093D004A4E6643B6FBF3F6066002E028
:101F5000474E066000BF00BF464E766806F0F001AF
:101F60000909454E725C0668D6404660414E766867
:101F700006F4E061090A404E725C4668D64086600D
:101F80003C4E766806F46051C90A3B4E725C466866
:101F9000D640C660374E766806F44041890B374E0E
:101FA000725CC668B6FBF2F60661F0BD29B1314A33
:101FB000526902432F4B5A6104E02E4A5269824310
:101FC0002C4B5A61704729B12A4A92690243294B26
:101FD0009A6104E0274A92698243264B9A617047CE
:101FE00029B1244AD2690243224BDA6104E0214A32
:101FF000D26982431F4BDA61704729B11D4AD2680A
:1020000002431C4BDA6004E01A4AD2688243194B3F
:10201000DA60704729B1174A12690243154B1A61F9
:1020200004E0144A12698243124B1A617047144942
:10203000086070471349C86470470E49C8717047FB
:102040000C48406A40F080700A4948627047014677
:102050000020084A92680A400AB1012000E00020EE
:1020600070470449896841EA0041024A916070471B
:1020700000127A00001002402200002032000020EE
:10208000400442420000424210B5044653482044F6
:1020900078B1B0F5806F16D0B0F5744F1DD1012125
:1020A0008803FFF7AAFF00214FF48040FFF7A5FF48
:1020B00014E001214804FFF7ADFF00214FF4003088
:1020C000FFF7A8FF0AE001218804FFF7A3FF002122
:1020D0004FF48020FFF79EFF00E000BF00BF10BD5F
:1020E0002DE9F04385B004460D460026B046B146C2
:1020F00000272746E66926F03606A888E9880843BF
:10210000298908430643E661A66926F01F06A889C7
:10211000698908430643A6616846FFF7CFFE304849
:10212000874202D1DDF80C8001E0DDF808802868E4
:10213000B8FBF0F006092868B8FBF0F000F00F09D2
:102140002662C4F8249005B0BDE8F0834FF4165120
:102150000160302181800021C180018118214181ED
:1021600000218181704721B1826942F001028261C0
:1021700004E082694FF6FE731A40826170471AB11B
:1021800003690B43036102E003698B4303617047FA
:102190001AB183690B43836102E083698B438361D6
:1021A0007047CAB20260704701464868C0B27047C3
:1021B0000246002093680B400BB1012000E0002094
:1021C0007047704702460020D3680B400BB10120D6
:1021D00000E00020704741617047000000BCFFBF75
:1021E0000038014010B50446B4F1804F12D0F748D2
:1021F0002044C0B1B0F5806F1ED0B0F5943F24D11B
:102200000121C802FFF7F9FE00214FF40060FFF73B
:10221000F4FE1BE001210846FFF7FCFE002101202F
:10222000FFF7F8FE12E001210220FFF7F3FE002184
:102230000220FFF7EFFE09E001210420FFF7EAFE8C
:1022400000210420FFF7E6FE00E000BF00BF10BD44
:10225000028802F08F020280CA884B881A430388E2
:102260001A4302808A8882850A880285D84A904269
:1022700001D10A7A028601228282704770B5002459
:1022800000220023058C4FF6FE7635400584028C33
:102290008388048B4FF68F752C400D882C43751E58
:1022A0002A400D892A434D882A43CD888586C84D0A
:1022B000A84211D1F51F2A404D892A43F51E2A4014
:1022C0008D882A4347F6FF652B4047F6FF552B4084
:1022D0008D892B43CD892B4383800483028470BD79
:1022E00070B5002400220023058C4FF6EF763540B0
:1022F0000584028C8388048B48F6FF752C400D887A
:102300004FF6FF7606EA05252C434FF6DF752A4087
:102310000D8906EA05152A434D8806EA05152A4364
:10232000CD880587AA4DA8421BD14FF67F752A405C
:102330004D8906EA05152A434FF6BF752A408D8858
:1023400006EA05152A4347F6FF352B4047F2FF758D
:102350002B408D8906EA85052B43CD8906EA850544
:102360002B4383800483028470BD70B50024002257
:102370000023058C4FF6FF6635400584028C838868
:10238000848B4FF68F752C400D882C434FF6FF55EC
:102390002A400D894FF6FF7606EA05252A434D8827
:1023A00006EA05252A43CD888587894DA8421BD199
:1023B0004FF2FF752A404D8906EA05252A434FF65C
:1023C000FF352A408D8806EA05252A4346F6FF7523
:1023D0002B4045F6FF752B408D8906EA05152B43EA
:1023E000CD8906EA05152B4383808483028470BD62
:1023F00070B5002400220023058C4EF6FF76354090
:102400000584028C8388848B48F6FF752C400D88E8
:102410004FF6FF7606EA05252C434DF6FF752A4058
:102420000D8906EA05352A434D8806EA05352A4313
:10243000CD88A0F84050664DA84205D1C3F30D03E6
:102440008D8906EA85152B4383808483028470BDC1
:10245000828B4FF2FF331A408283828B4FF6FF73D9
:1024600003EA01231A4382837047F0B50C461546F0
:10247000002100220026078C4EF6FF7C07EA0C079D
:102480000784818B028C4FF6FF7707EA043640F60B
:10249000FF4739404FF6FF7707EA05274FF6FF7CE5
:1024A0000CEA033C47EA0C0739434DF6FF773A4004
:1024B00046F480573A4381830284F0BD828B4FF605
:1024C000F3731A408283828B0A4382837047F0B58C
:1024D0000C461546002100220026078C4FF6FF6CA3
:1024E00007EA0C070784818B028C4FF6FF7707EA17
:1024F00004264FF60C7739404FF6FF7707EA0317AB
:102500002F4339434FF6FF573A4046F480773A431A
:1025100081830284F0BD028B4FF2FF331A400283A5
:10252000028B4FF6FF7303EA01231A4302837047BD
:10253000F0B50C461546002100220026078C4FF608
:10254000EF7C07EA0C070784018B028C4FF6FF77BC
:1025500007EA041640F6FF4739404FF6FF7707EACF
:10256000033739434FF6FF7707EA052739434FF61C
:10257000DF773A4046F010073A4301830284F0BD0A
:10258000028B4FF6F3731A400283028B0A430283D5
:102590007047F0B50C46154600210022068C4FF618
:1025A000FE773E400684018B028C4FF60C7631405C
:1025B0007E1C06EA03162E4331437E1E324044F051
:1025C0000106324301830284F0BD000000FCFFBF1E
:1025D000002C014070B505460C46208850B923896F
:1025E000A28861882846FFF7D4FFE1882846FFF7D4
:1025F000C7FF25E0208804280AD12389A2886188A2
:102600002846FFF795FFE1882846FFF784FF17E08B
:10261000208808280AD12389A28861882846FFF7E4
:1026200056FFE1882846FFF749FF09E02389A28881
:1026300061882846FFF719FFE1882846FFF708FF61
:1026400070BD2DE9F04105460C4600260127608843
:1026500008B9022600E00026A088012801D102273F
:1026600000E001272088A0B92389A2886188284634
:10267000FFF78FFFE1882846FFF782FF23893A465C
:1026800031462846FFF754FFE1882846FFF743FF0D
:1026900013E02389A28861882846FFF749FFE18873
:1026A0002846FFF738FF23893A4631462846FFF788
:1026B00070FFE1882846FFF763FFBDE8F0810A88D4
:1026C0004B881A438B881A43CB881A430B891A43C9
:1026D0004B891A438B891A43A0F8442070474FF660
:1026E000FF71818000210180C180418001727047AB
:1026F0000021018041808180C180018141818181EF
:10270000C181704700210180418001218180002129
:10271000C180018170470021018041808180C1809A
:10272000018141818181704721B1028842F001021B
:10273000028004E0028840F2FE331A4002807047B3
:1027400031B1B0F8442042F40042A0F8442005E042
:10275000B0F84420C2F30E02A0F84420704710B530
:10276000002300BF22B184890C438481838902E065
:1027700084898C43848110BD8182704741EA0203C1
:10278000A0F8483070471AB183890B43838102E077
:1027900083898B438381704701894FF6F87211401A
:1027A000018170470A46002101894FF68F73194055
:1027B00011430181704730B504460D462946204635
:1027C000FFF7F0FF208940F00700208130BD2DE9A0
:1027D000F04104460D4616461F46602D06D13B4685
:1027E000012231462046FFF7A3FE05E03B460122C9
:1027F00031462046FFF7CDFE29462046FFF7D2FF9F
:10280000208940F007002081BDE8F08170B50C46BA
:1028100000210189C9B244EA02054FF6FF7606EAB3
:10282000032635432943018170BD2DE9F04105465A
:102830000E4617469846002443463A4631462846F7
:10284000FFF7E4FF2C894FF6F870044044F00704CA
:102850004FF68F70044044F070042C81BDE8F08185
:10286000F0B504460D4616461F463B4632462946FD
:102870002046FFF7CBFF208940F480402081F0BD47
:102880000185828270470A460021018840F28F3319
:102890001940114301807047F0B50C4615461E469D
:1028A0000021002200230189028B038C4FF6F87768
:1028B000394021434FF6FC473A4040F201173A4372
:1028C0004FF6DD773B404FF6FF7707EA06172F43B9
:1028D0003B43018102830384F0BD0A460021018B42
:1028E0004FF68F7319401143018370470A46002148
:1028F000018B48F6FF7319404FF6FF7303EA02237A
:102900001943018370470A460021818B4FF68F736C
:1029100019401143818370470A460021818B48F694
:10292000FF7319404FF6FF7303EA022319438183B3
:10293000704721B1028842F08002028004E00288E0
:1029400040F27F331A400280704721B1828842F002
:102950000402828004E082884FF6FB731A40828072
:10296000704721B1828842F00802828004E08288A8
:102970004FF6F7731A408280704721B1828842F087
:102980000102828004E082884FF6FE731A40828042
:1029900070470A460021018B4FF6F7731940114327
:1029A000018370470A460021018B4FF2FF731940E3
:1029B0004FF6FF7303EA02231943018370470A4667
:1029C0000021818B4FF6F7731940114381837047C3
:1029D0000A460021818B4FF2FF7319404FF6FF73B7
:1029E00003EA02231943818370470A460021018BC1
:1029F0004FF6FB7319401143018370470A460021CB
:102A0000018B4FF6FF3319404FF6FF7303EA0223A1
:102A10001943018370470A460021818B4FF6FB73EF
:102A200019401143818370470A460021818B4FF67C
:102A3000FF3319404FF6FF7303EA022319438183E2
:102A400070470A460021018B4FF67F7319401143EE
:102A5000018370470A460021018BC1F30E014FF636
:102A6000FF7303EA02231943018370470A460021DA
:102A7000818B4FF67F7319401143818370470A465B
:102A80000021818BC1F30E014FF6FF7303EA02238D
:102A90001943818370470A460021018C4FF6FD736C
:102AA00019401143018470470A460021018C4FF6FA
:102AB000F77319401143018470470A460021018CC5
:102AC0004FF6DF7319404FF6FF7303EA0213194301
:102AD000018470470A460021018C4FF67F7319402C
:102AE0004FF6FF7303EA02131943018470470A4645
:102AF0000021018C4FF6FF5319404FF6FF7303EA94
:102B000002231943018470470A460021018C4FF2C9
:102B1000FF7319404FF6FF7303EA02231943018440
:102B200070470A460021018C4DF6FF7319404FF69D
:102B3000FF7303EA023319430184704710B5038C15
:102B400001248C40A3430384038C02FA01F4A4B251
:102B50002343038410BD10B5038C04248C40A3438D
:102B60000384038C02FA01F4A4B22343038410BD4E
:102B700030B5038C01248C40A343038409B1082998
:102B800018D100F1180303EB61031B684FF68F7433
:102B9000234000F1180404EB6104236000F11803E2
:102BA00003EB61031B68134300F1180404EB610499
:102BB00023601FE00B1FC3F34E0400F118031B59E1
:102BC00048F6FF7423400C1FC4F34E0500F11804AF
:102BD00063510B1FC3F34E0400F118031B594FF64A
:102BE000FF7404EA022423430C1FC4F34E0500F1D2
:102BF0001804635130BD21B1028842F00202028004
:102C000004E0028840F2FD331A400280704721B18F
:102C1000028842F00402028004E0028840F2FB33A2
:102C20001A400280704721B1828842F0800282807F
:102C300004E082884FF67F731A40828070470288D2
:102C400040F2F7331A40028002880A43028070473C
:102C500082884FF68F731A40828082880A4382806E
:102C6000704702894FF6F8731A40028102890A43BD
:102C70000281704702894FF67F731A4002810289F0
:102C80000A4302817047818470478185704781863D
:102C900070470187704781877047A0F840107047E0
:102CA0000288D2B2028002880A430280704701463D
:102CB000888E70470146088F70470146888F70479D
:102CC0000146B1F8400070470146888C70470146C4
:102CD000088D704702460020138A0B400BB101207B
:102CE00000E000207047CA430282704730B50246B8
:102CF000002000230024158A05EA0103958905EACE
:102D0000010413B10CB1012000E0002030BDCA4322
:102D100002827047F0B5B3B004460D461646002750
:102D20006422A6A1A6A000F0B2FAA8A1204602F053
:102D3000F7FD20B96422A1A1A5A000F0A8FA2B46B6
:102D40002246A8A101A8009602F0D0FA0DE039466B
:102D50007A1CD7B2AAA002F0BDFA6420FDF709FCE4
:102D60000A2F02DB012033B0F0BDC82293A101A8D5
:102D700000F08DFA0028EAD100210320FDF754FC71
:102D80004FF49670FDF7F5FB64228CA1A5A000F02E
:102D90007EFA0020A7490880642288A1A6A000F03E
:102DA00076FA0020DFE770B504460D462146A5A05F
:102DB00002F090FA2146A9A0FEF7B4FC1420FDF71A
:102DC000D8FB00209B4908804FF47A70FDF7D1FBB7
:102DD0009848008800F4004030B1002095490988E7
:102DE000C1F30E01A04A5054A049A148A8470020B1
:102DF000904908804FF4FA619B4802F048FDFDF7C6
:102E0000E5FB002070BD2DE9F04F85B004460D466E
:102E1000954802F05BFC8346594696A002F05AFAA8
:102E2000914801F06BFA8246BAF1000F06D199A0E1
:102E300002F050FA002005B0BDE8F08F9AA002F031
:102E400049FAA1A1504601F05FFE0746002F7CD051
:102E50000021384601F04FFE8046B8F1000FF6D051
:102E60009BA1404601F050FE406920609EA1404673
:102E700001F04AFE4069E060A1A1404601F044FE35
:102E800040696060A1A1404601F03EFE40692061BA
:102E9000A1A1404601F038FE4069A060A1A14046D2
:102EA00001F032FE40696061A1A002F013FAA9A00E
:102EB000E268216802F00EFAAEA02269616802F0B1
:102EC00009FAB4A06269A16802F004FAB9A1404607
:102ED00001F01AFE8146B9F1000F35D07CA14846B9
:102EE00001F012FE406928607FA1484601F00CFE07
:102EF0004069E86082A1484601F006FE40696860CA
:102F000082A1484601F000FE4069286182A148463E
:102F100001F0FAFD4069A86082A1484601F0F4FD85
:102F200040696861A8A002F0D5F98AA0EA6829681A
:102F300002F0D0F98FA02A69A96802F0CBF995A018
:102F40006A69696802F0C6F900E028E0A7A1404676
:102F500001F0DAFD01468069C9690022A64BCDE97E
:102F6000000105F0F1FACDE9020105F0B1FC049091
:102F700004A802F015FD0646B0680830B06033467C
:102F80009EA2142104F1180002F030FD04F1180192
:102F90009DA002F09FF900210420FDF745FB40466B
:102FA00000F0AAFB384600F0A7FB504600F0A4FB57
:102FB00098A002F08FF901203DE700004F4B000080
:102FC00041542B4349504D55583D300053534C000C
:102FD00041542B43495053534C53495A453D343087
:102FE0003936000041542B43495053544152543D0B
:102FF000222573222C222573222C25730000000029
:10300000617069C1ACBDD3CAA7B0DC2CD5FDD4DAE0
:10301000B3A2CAD4B5DA20256420B4CEC1ACBDD3E6
:103020000D0A000041542B4349504D4F44453D315A
:10303000000000002000002041542B43495053451C
:103040004E440000BBF1C8A1D2DFC7E9CAFDBEDD16
:103050003A4745542025730D0A0000004745542087
:1030600025730A0A0000000058000020AC0A002066
:10307000800A0020BFAACABCBDE2CEF6D2DFC7E9F3
:10308000CAFDBEDD2C20CAFDBEDDB3A4B6C83A25FC
:10309000640D0A00D2DFC7E9CAFDBEDDB8F1CABDC2
:1030A000B4EDCEF30D0A0000D2DFC7E9CAFDBEDDE4
:1030B000B8F1CABDD5FDC8B7A3ACBFAACABCBDE2B2
:1030C000CEF60D0A00000000726573756C74730013
:1030D00063757272656E74436F6E6669726D656456
:1030E000436F756E7400000063757272656E744391
:1030F0006F6E6669726D6564496E637200000000F0
:103100006375726564436F756E74000063757265F4
:1031100064496E637200000064656164436F756E9C
:103120007400000064656164496E63720000000011
:103130002D2D2D2D2D2D2D2D2D2D2D2DB9FAC4DA22
:10314000D2DFC7E92D2D2D2D2D2D2D2D2D2D2D2D02
:103150002D0D0A00CFD6B4E6C8B7D5EF3A20252DFD
:1031600037642C20BDCFD7F2C8D53A252D35640D54
:103170000A000000C0DBBCC6D6CED3FA3A20252D0B
:1031800037642C20BDCFD7F2C8D53A252D35640D34
:103190000A000000C0DBBCC6CBC0CDF63A20252D0E
:1031A00037642C20BDCFD7F2C8D53A252D35640D14
:1031B0000A000000676C6F62616C5374617469731C
:1031C00074696373000000002D2D2D2D2D2D2D2DE4
:1031D0002D2D2D2DC8ABC7F2D2DFC7E92D2D2D2DFA
:1031E0002D2D2D2D2D2D2D2D2D0D0A007570646189
:1031F000746554696D65000000408F40256D2D2574
:10320000642025483A254D00B8FCD0C2D3DA3A25CF
:10321000730D0A002A2A2A2A2A2A2A2A2AB8FCD026
:10322000C2CDEAB3C92A2A2A2A2A2A2A2A2A0D0A18
:103230000000000010B50446B048008800F40040CB
:1032400070B10020AD490988C1F30E01AC4A505459
:103250001146ACA002F03EF814B10020A749088046
:1032600010BD70B504460025A448008800F4004055
:1032700058B10020A1490988C1F30E01A04A505459
:103280002146104602F0ECF90546284670BD2DE9AE
:10329000F04106460C461546002700209749088055
:1032A000314699A0FEF73EFAECB1E5B114E00A20F0
:1032B000FDF75FF99148008800F4004060B12046B6
:1032C000FFF7CFFF28B12246314691A002F002F865
:1032D00006E0002089490880681E80B2051EE6D1FC
:1032E00000BF05B901273846BDE8F0812DE9F0415E
:1032F00006460D46144600270020804908803146C6
:1033000080A0FEF70FFAC5B1BCB10FE00A20FDF7AF
:1033100030F97A48008800F4004038B12846FFF7B9
:10332000A0FF00B106E0002074490880601E80B252
:10333000041EEBD100BF04B901273846BDE8F08177
:1033400010B500BF7748006800F001000028F9D0F0
:103350002B207449083908600F20FDF70AF900BFD7
:103360007048006800F001000028F9D02B206D495A
:10337000083908600F20FDF7FCF800BF69480068B5
:1033800000F001000028F9D02B20664908390860B8
:103390004FF4FA70FDF7EDF8142263A163A0FFF774
:1033A00076FF10BD70B5FFF7CBFF08B1002070BDF0
:1033B00032225FA15FA0FFF76AFF62A0FFF751FF13
:1033C00005462C782046F2E770B50546322256A114
:1033D0005FA0FFF75CFF10B10020287070BD5FA0F8
:1033E000FFF73FFF04465DA1601C02F039F9064675
:1033F00000203070621C43A1284601F077FF00BF17
:10340000ECE710B5E4B0012455A001F063FF002102
:103410000120FDF709F908E0FFF792FF4FF47A70F9
:10342000FDF7A7F851A001F055FF14223EA13FA0DF
:10343000FFF72DFF0028EFD1C8223BA14FA0FFF7D7
:1034400026FF4FF47A70FDF794F84FF47A70FDF789
:1034500090F84FF47A70FDF78CF8C82232A14AA098
:10346000FFF715FF00BF14222FA14BA0FFF70FFF9E
:103470000028F8D132222CA149A0FFF708FF4FF411
:103480007A70FDF776F84FF47A70FDF772F84FF422
:103490007A70FDF76EF84FF47A70FDF76AF814222F
:1034A00021A142A0FFF7F3FE43A349A24CA132A8F9
:1034B00001F01CFF46A213A1684601F017FF0BE0C4
:1034C0002146621CD4B24BA001F004FFFA2C00DBB1
:1034D00000246420FDF74DF84FF496724EA132A8F7
:1034E000FFF7D5FE0028EBD14EA001F0F3FE00213E
:1034F0000220FDF799F8002064B010BD20000020E4
:10350000580000202573000025730D0A00000000FC
:10351000B7A2CBCDA3BA257320BBD8D3A63A2573C7
:103520000D0A0000084400404F4B000041540000C9
:103530003A00000041542B434950535441545553D1
:10354000000000002B4349505354415455533A0056
:1035500041542B4349465352000000002200000012
:10356000D7BCB1B8C1ACBDD30D0A0000CEB4BCEC21
:10357000B2E2B5BDC4A3BFE90D0A000041542B520D
:103580004553544F5245000041542B4349504D4F31
:1035900044453D300000000041544530000000002B
:1035A00041542B43574D4F44453D310041542B432B
:1035B00049504D55583D30007777772E77616E67CB
:1035C0006368616F6368616F2E746F700000000044
:1035D0006D6D33325F323031395F6E636F7600006C
:1035E00041542B43574A41503D222573222C22251A
:1035F0007322000057694669C1ACBDD3CAA7B0DCCD
:103600002CD5FDD4DAB3A2CAD4B5DA20256420B40F
:10361000CEC1ACBDD30D0A005749464920474F548F
:103620002049500057694669C1ACBDD3B3C9B9A69A
:103630000D0A0000FE480068704770B504460D464C
:103640002CB9AC4201D0012070BD0020FCE70DB9BF
:103650000120F9E705E0207808B90020F4E7641CB0
:103660006D1C207801F0FCFD0646287801F0F8FD7D
:103670008642F0D0207801F0F3FD0646287801F06C
:10368000EFFD301AE0E770B50446204602F01EF860
:10369000451C2846E74909688847061E00D170BDC9
:1036A0002A462146304602F07BF83046F7E730B92B
:1036B000E149E04A1160E149E14A1160704701685F
:1036C00009B1016800E0DC49DA4A1160416809B1DA
:1036D000416800E0D949DA4A116000BFEEE710B551
:1036E0002820D4490968884704461CB1282120466F
:1036F00002F0EFF8204610BD70B5044622E02568C0
:10370000A08900F4807020B9A06810B1A068FFF70C
:10371000F3FFA08900F4807028B9206918B1C84966
:10372000206909688847A08900F4007028B9206AD8
:1037300018B1C349206A096888472046C04909680A
:1037400088472C46002CDAD170BD2DE9F04F8BB0A4
:1037500083468A460020044605460026B94F0021CC
:10376000884689460990012008909AF800002D2883
:1037700002D1B54F0AF1010A9AF80000302801D1B0
:103780000AF1010A9AF80000312822DB9AF80000B9
:1037900039281EDC00BF1AF8011BA1F1300005F02A
:1037A000C4F80022A94BCDE906012046294605F0C0
:1037B0000FF9CDE90401DDE9062304F009FE044612
:1037C0000D469AF80000302803DB9AF800003928EB
:1037D000E1DD9AF800002E2830D19AF80100302857
:1037E0002CDB9AF80100392828DC0AF1010A00BF15
:1037F0001AF8011BA1F1300005F097F80022934B55
:10380000CDE906012046294605F0E2F8CDE904019C
:10381000DDE9062304F0DCFD04460D460022894B59
:103820004046494605F0FAFA804689469AF8000073
:10383000302803DB9AF800003928D9DD9AF8000017
:10384000652803D09AF80000452823D10AF1010A1F
:103850009AF800002B2802D10AF1010A08E09AF830
:1038600000002D2804D14FF0FF3008900AF1010A22
:1038700008E01AF8010B3038099901EB810100EBDF
:10388000410009909AF80000302803DB9AF8000004
:103890003928EEDDDDE9082101FB02F005F045F8ED
:1038A00042464B46CDE9000104F092FD02460B462C
:1038B000CDE902010020654904F036F822462B4686
:1038C000CDE906013046394605F082F8CDE904011C
:1038D000DDE9062305F07CF804460D46CBE90645F4
:1038E0002046294604F0C4FFCBF814000320CBF88F
:1038F0000C0050460BB0BDE8F08F0146491E41EA6E
:10390000610141EAA10141EA211141EA212141EA93
:103910002141481C70472DE9F04104460E460CB188
:10392000206810B90020BDE8F081A06806446068F6
:10393000B04203DBA16820680844F4E73046FFF793
:10394000DCFF074638463B490968884705463DB9CC
:103950003B49206809688847002060602060E2E7F2
:1039600025B12846D4E9001201F01AFF3449206835
:103970000968884767602560A0682844D3E770B568
:1039800004460CB1206808B9002070BDA168206809
:103990004518284601F09AFEA1680844F5E72DE98C
:1039A000FC4782460E464FF00009DAE90645002240
:1039B00013462046294604F01FFF13D12EB10221E1
:1039C0003046FFF7A8FF814604E002201949096844
:1039D00088478146B9F1000F03D01DA00088A9F8DF
:1039E00000009FE0DAF8140004F09FFF074622462B
:1039F0002B4605F013FA21F000410022154BCDE9CA
:103A0000000104F0A9FF3ED8134A144B2046294672
:103A100004F0A2FF37D80022114B2046294605F0BA
:103A2000D5F830D806B315213046FFF774FF19E0FA
:103A3000380000203C0000200D520008F55100081D
:103A4000400000200000F03F0000F0BF00002440D4
:103A5000300000000000B03C0000C0FFFFFFDF416D
:103A60000000E0C1814604E01520FA490968884752
:103A70008146B9F1000F55D0F7A14846DAF8142075
:103A800001F034FC4EE02EB140213046FFF743FFF9
:103A9000814604E04020EF49096888478146B9F132
:103AA000000F3FD02046294603F0B0FC07462246CF
:103AB0002B4605F0B3F921F000410022E74BCDE998
:103AC000000104F049FF0FD825F000412746E44AE1
:103AD000E44B384604F040FF06D222462B46E2A1D2
:103AE000484601F003FC1DE025F000412746E04A6E
:103AF000E04B384604F030FF07D325F000410022A8
:103B0000DD4B384605F062F806D222462B46DBA193
:103B1000484601F0EBFB05E022462B46D8A148467B
:103B200001F0E4FB4846BDE8FC8701460022087826
:103B3000302806DB0878392803DC0878303802445E
:103B400015E00878412806DB0878462803DC087869
:103B5000373802440BE00878612806DB08786628CD
:103B600003DC08785738024401E000207047120156
:103B7000491C0878302806DB0878392803DC0878E7
:103B80003038024415E00878412806DB08784628DA
:103B900003DC0878373802440BE00878612806DB3C
:103BA0000878662803DC08785738024401E00020D2
:103BB000DCE71201491C0878302806DB0878392830
:103BC00003DC08783038024415E00878412806DB29
:103BD0000878462803DC0878373802440BE0087878
:103BE000612806DB0878662803DC08785738024429
:103BF00001E00020BAE71201491C0878302806DBF2
:103C00000878392803DC08783038024415E0087851
:103C1000412806DB0878462803DC08783738024458
:103C20000BE00878612806DB0878662803DC087852
:103C30005738024401E0002098E7104696E72DE946
:103C4000F05F8346884608F10104002798F80000D9
:103C5000222805D08B48C0F800800020BDE8F09FE6
:103C600004E014F8011B5C2900D1641C2078222890
:103C700004D0207810B1781C071EF2D1781C754949
:103C8000096888478146B9F1000F01D10020E5E7B6
:103C900008F101044D469EE020785C2804D014F819
:103CA000010B05F8010B96E0641C2078722818D0EF
:103CB00006DC622809D066280BD06E287ED10CE085
:103CC000742812D07528F9D113E0082005F8010BEB
:103CD0007FE00C2005F8010B7BE00A2005F8010BC2
:103CE00077E00D2005F8010B73E0092005F8010BC2
:103CF0006FE0601CFFF719FF0646241DB6F55C4F08
:103D000002D3B6F5604F00D306B962E0B6F5584F5E
:103D10001CD3B6F55C4F19D260785C2802D1A0782C
:103D2000752800D055E0E01CFFF7FFFE8246A41D79
:103D3000BAF55C4F02D3BAF5604F00D349E0C6F341
:103D40000901504661F39F2000F580360427802E3C
:103D500001D2012708E0B6F5006F01D2022703E087
:103D6000B6F5803F00D203273D44012F20D0022F1B
:103D700015D0032F0AD0042F24D106F0BF0040F045
:103D80008001681E05460170B60900BF06F0BF003D
:103D900040F08001681E05460170B60900BF06F0BC
:103DA000BF0040F08001681E05460170B60900BFE3
:103DB0003548C05D3043C1B2681E00E005E00546ED
:103DC000017000BF00BF3D4403E0207805F8010BFF
:103DD00000BF00BF641C2078222803D02078002870
:103DE0007FF45AAF002028702078222800D1641C6C
:103DF000CBF810900420CBF80C0020462EE72DE9DC
:103E0000F05F804689460027BB46454611E028788A
:103E1000002802DD2878202805DB2878222802D017
:103E200028785C2801D1012000E0002040EA0B0B3B
:103E30006D1C28780028EAD1BBF1000F3ED1A5EB1C
:103E40000807B9F1000F21D0F91C4846FFF763FDC0
:103E5000064620E03C000020256400000000B03C45
:103E600044F3C2E4E4E9634C252E30660000000010
:103E70008DEDB5A0F7C6B03E65CDCD4125650000FE
:103E8000256600003800002023960008F81CFD4934
:103E900009688847064616B90020BDE8F09F3446F9
:103EA000222004F8010B4146204601F0EBFB2220C2
:103EB000E0550021781C21543046EEE7B8F1000FA0
:103EC00016D1B9F1000F05D003214846FFF723FDB5
:103ED000064604E00320EB490968884706460EB908
:103EE0000020DAE7E8A1304601F0CCFB3046D4E709
:103EF00045460BE05146E5A001F0A8FB08B17F1C48
:103F000003E0BAF1200F00DA7F1D6D1C95F800A0C8
:103F1000BAF1000F02D0781C071EEBD1B9F1000FE7
:103F200005D0F91C4846FFF7F6FC064604E0F81CED
:103F3000D4490968884706460EB90020ADE73446E3
:103F40004546222004F8010B47E028781F280ADDA7
:103F50002878222807D028785C2804D015F8010B8F
:103F600004F8010B39E05C2004F8010B15F8011B83
:103F70008A460C2919D006DC082912D0092920D03C
:103F80000A2922D115E00D2917D0222905D05C2954
:103F90001BD15C2004F8010B1EE0222004F8010B69
:103FA0001AE0622004F8010B16E0662004F8010B09
:103FB00012E06E2004F8010B0EE0722004F8010BF1
:103FC0000AE0742004F8010B06E05246B1A1204635
:103FD00001F08CF9641D00BF00BF28780028B4D11F
:103FE000222004F8010B002004F8010B304654E7AE
:103FF00070B504460D4629462069FFF700FF70BDE5
:1040000000E0401C20B1017811B101782029F8DDD1
:1040100070472DE9F04706460C4620787B2804D0EF
:104020009E4804600020BDE8F0870620F060601C18
:10403000FFF7E6FF044620787D2801D1601CF2E7F7
:10404000FFF74DFB0546B060B06808B90020EAE70D
:104050002046FFF7D5FF804641462846FFF7EFFD93
:104060000746FFF7CDFF04460CB90020DBE72869BF
:1040700028620020286120783A2803D0874804600D
:104080000020D0E7601CFFF7BBFF80464146284672
:1040900000F099F80746FFF7B3FF04460CB900207B
:1040A000C1E731E0FFF71BFB071E00D1BBE72F6024
:1040B0007D603D46601CFFF7A3FF814649462846C8
:1040C000FFF7BDFD8046FFF79BFF04460CB90020BB
:1040D000A9E7286928620020286120783A2803D0BF
:1040E0006E48046000209EE7601CFFF789FF814650
:1040F0004946284600F067F88046FFF781FF0446EE
:104100000CB900208FE700BF20782C28CAD0207877
:104110007D2801D1601C86E760480460002082E7AA
:104120002DE9F04705460C4620785B2804D05B4813
:1041300004600020BDE8F0870520E860601CFFF700
:104140005FFF044620785D2801D1601CF2E7FFF78D
:10415000C6FA0646A860A86808B90020EAE7204623
:10416000FFF74EFF80464146304600F02CF80746E8
:10417000FFF746FF04460CB90020DBE717E0FFF726
:10418000AEFA071E00D1D5E737607E603E46601C60
:10419000FFF736FF81464946304600F014F8804666
:1041A000FFF72EFF04460CB90020C3E700BF2078BC
:1041B0002C28E4D020785D2801D1601CBAE737486C
:1041C00004600020B6E770B505460C460CB9002027
:1041D00070BD042232A1204601F097FA18B90220DE
:1041E000E860201DF4E705222FA1204601F08DFA9A
:1041F00018B90020E860601DEAE704222CA12046DF
:1042000001F083FA20B90120E8606861201DDFE732
:104210002078222804D121462846FFF710FDD7E751
:1042200020782D2805D02078302807DB2078392801
:1042300004DC21462846FFF788FAC9E720785B2886
:1042400004D121462846FFF76BFFC1E720787B2881
:1042500004D121462846FFF7DCFEB9E70F48046089
:104260000020B5E72DE9F04780460D4616460024AC
:10427000FFF735FA0746002008490860E7B9BDE8AE
:10428000F08700003C00002022220000225C080C85
:104290000A0D090075253034780000003800002030
:1042A0006E756C6C0000000066616C736500000048
:1042B00074727565000000004046FFF7A1FE81465C
:1042C00049463846FFF77FFF04462CB93846FFF7CA
:1042D00013FA0020BDE8F08766B12046FFF790FE94
:1042E0000446207830B13846FFF706FAFE480460ED
:1042F0000020EFE705B12C603846EBE710B5044627
:10430000002211462046FFF7ADFF10BD2DE9FF4FFB
:1043100089B0884616461F460020089007900690F0
:104320004FF0070A00250998D0F808900020029065
:104330000190009004E00298401C0290D9F800908F
:10434000B9F1000FF7D10298002835D157B116B155
:1043500008F1040000E0032001463846FFF7DBFACD
:10436000069009E016B108F1040100E003210846B7
:10437000DE49096888470690069818B900200DB0F4
:10438000BDE8F08F069C7B2004F8010B66B10A2083
:1043900004F8010B002503E0092004F8010B6D1C53
:1043A000A8F10100A842F7DC7D2004F8010B0020F1
:1043B00004F8010B0698E2E7002F77D0BD680EB134
:1043C000022000E0012082460AF101013846FFF791
:1043D000A2FA04460CB90020D1E77B2004F8010BB7
:1043E00016B10A2004F8010B00202070B868504470
:1043F000B8600998D0F8089008F1010868E0B6B1F3
:1044000041463846FFF787FA04460CB90020B6E764
:104410000020039005E0092004F8010B0398401CDC
:10442000039003984045F6DBB8684044B8603946CD
:10443000D9F82000FFF7E3FC3846FFF7A0FAB86090
:104440000EB1022000E00120824651463846FFF7B7
:1044500062FA04460CB9002091E73A2004F8010BF7
:1044600016B1092004F8010BB8685044B8603B4607
:1044700032464146484600F078FA3846FFF77FFA60
:10448000B8600EB1012000E00020D9F8001009B199
:10449000012100E0002100EB010A0AF10101384688
:1044A000FFF739FA044614B9002068E734E0D9F878
:1044B000000010B12C2004F8010B16B10A2004F8FA
:1044C000010B00202070B8685044B860D9F8009003
:1044D000B9F1000F93D116B108F1010000E00220FC
:1044E00001463846FFF717FA04460CB9002046E7A4
:1044F0004EB1002503E0092004F8010B6D1CA8F162
:104500000100A842F7DC7D2004F8010B0020207098
:1045100038682844069005E10299880073490968C3
:1045200088470890089808B9002028E70299880071
:104530006E49096888470790079828B96C49089818
:104540000968884700201AE702988100089801F05E
:10455000C0F902988100079801F0BBF90998D0F8DA
:10456000089008F1010806B1C2442EE00021D9F8F4
:104570002000FFF744FC0490079941F82500002330
:1045800032464146484600F0F0F929466D1C059038
:10459000089A42F82100049898B1059888B10598C6
:1045A00001F094F88346049801F090F80BEB0001B9
:1045B000891C16B108F1020000E000200844824482
:1045C00001E001200190D9F80090B9F1000FCDD1A0
:1045D000019820B9504645490968884706900698D1
:1045E00008B901200190019818B3002514E007983C
:1045F00050F8250028B1079951F825003C49096871
:104600008847089850F8250028B1089951F82500E6
:104610003749096888476D1C02988542E7DB3449B1
:104620000798096888473249089809688847002030
:10463000A5E67B21069801700698441C16B10A2055
:1046400004F8010B00202070002548E05EB1002036
:10465000039005E0092004F8010B0398401C039027
:1046600003984045F6DB079951F8250001F02EF834
:104670000090079850F825102046009A01F090F815
:10468000009804443A2004F8010B16B1092004F8FC
:10469000010B089850F82510204600F0F3FF089908
:1046A00051F8250001F012F804440298401EA84277
:1046B00002D02C2004F8010B16B10A2004F8010BDB
:1046C00000202070079951F825000949096888479A
:1046D000089951F825000649096888476D1C029819
:1046E0008542B3DB024905E0380000203C00002091
:1046F00040000020079809688847F749089809682A
:1047000088474EB1002503E0092004F8010B6D1C19
:10471000A8F10100A842F7DC7D2004F8010B00207D
:1047200004F8010B06982AE62DE9FF4F85B0924662
:104730001E464FF0000B052003900598D0F8088026
:10474000D946002500200290019003E009F10109FB
:10475000D8F80080B8F1000FF8D1B9F1000F16D1E8
:104760002EB103213046FFF7D6F8834604E003203C
:10477000DA49096888478346BBF1000F03D0D8A106
:10478000584600F07FFF584609B0BDE8F08F002E74
:1047900057D0B56801213046FFF7BDF804460CB983
:1047A0000020F1E75B202070B068401CB0600598E5
:1047B000D0F808802EE0334652460699491C404600
:1047C00000F0D3F83046FFF7DAF8B060D8F8000010
:1047D000F0B1BAF1000F01D0022000E001200390F7
:1047E0000399491C3046FFF796F804460CB900209F
:1047F000CAE72C2004F8010BBAF1000F02D02020E8
:1048000004F8010B00202070B16803980844B060E0
:10481000D8F80080B8F1000F02D002980028CAD062
:1048200002213046FFF777F804460CB90020ABE7C9
:104830005D2004F8010B00202070306800EB050BB0
:1048400091E04FEA8900A5490968884707460FB9F2
:10485000002099E74FEA8901384601F03AF80598B7
:10486000D0F8088021E0002352460699491C4046B2
:1048700000F07BF8049029466D1C049847F821004D
:10488000049870B1049800F021FF801CBAF1000F69
:1048900001D0012100E00021014403980844039065
:1048A00001E001200290D8F80080B8F1000F02D09A
:1048B00002980028D7D0029820B98849039809683F
:1048C00088478346BBF1000F01D101200290029876
:1048D00090B1002508E057F8250020B157F82500D1
:1048E0007D49096888476D1C4D45F4DB38467A4997
:1048F00009688847002047E75B208BF800000BF130
:10490000010400202070002521E057F8250000F068
:10491000DDFE019057F825102046019A00F040FF77
:1049200001980444A9F10100A8420AD02C2004F8FF
:10493000010BBAF1000F02D0202004F8010B002077
:10494000207057F825006449096888476D1C4D455B
:10495000DBDB38466049096888475D2004F8010BB5
:10496000002004F8010B58460EE72DE9F0410446FB
:104970000F4690461D46002614B90020BDE8F08180
:10498000002D49D0207B072845D2DFE800F0101C1D
:1049900004282E343C0005212846FEF7BCFF0646BD
:1049A00026B1AFF20471304600F06CFE33E0062110
:1049B0002846FEF7B0FF064626B1AFF21471304626
:1049C00000F060FE27E005212846FEF7A4FF06461A
:1049D00026B1AFF22471304600F054FE1BE02946A8
:1049E0002046FEF7DCFF064615E029462046FFF785
:1049F000FFFA06460FE02B46424639462046FFF7AF
:104A000093FE064607E02B46424639462046FFF70E
:104A10007DFC064600BF37E0207B072833D2DFE865
:104A200000F00A1004161C222A00AFF28C70FEF768
:104A30002AFE064627E0AFF29070FEF724FE0646F7
:104A400021E0AFF29470FEF71EFE06461BE0002147
:104A50002046FEF7A4FF064615E000212046FFF79A
:104A6000C7FA06460FE00023424639462046FFF7C4
:104A70005BFE064607E00023424639462046FFF724
:104A800045FC064600BF00BF304677E710B5044638
:104A90000023012219462046FFF767FF10BD10B51D
:104AA000044600231A4619462046FFF75EFF10BD54
:104AB000FEB505460C461646204608490968884753
:104AC00000900194002002906B4632460021284657
:104AD000FFF74BFFFEBD0000400000203C0000201F
:104AE0005B5D000001468A68002001E0401C1268FE
:104AF000002AFBD170470246906801E0491E006819
:104B000008B10029FADC704770B505460E46AC685E
:104B100000E024682CB13146206AFEF78EFD0028A3
:104B2000F7D1204670BD01604860704770B50546FA
:104B3000FEF7D5FD04460CB9002070BD2822294699
:104B4000204600F072FE00202062E06840F4807091
:104B5000E0600020606020602046EEE770B505460A
:104B60000E46AC6806B970BD0CB9AE6009E000E055
:104B7000246814B120680028FAD131462046FFF796
:104B8000D2FF00BFEFE770B506460D46144604B9E4
:104B900070BD206A18B1FE49206A09688847284616
:104BA000FEF771FD206221463046FFF7D7FF00BFB8
:104BB000EEE770B506460D46144604B970BDA089EF
:104BC00000F4007028B9206A18B1F149206A096818
:104BD00088472562E06840F40070E0602146304676
:104BE000FFF7BCFF00BFE9E770B505460C4620465D
:104BF000FFF79CFF064631462846FFF7AFFF70BD22
:104C00002DE9F04105460E4614462046FFF78EFF7B
:104C100007463A4631462846FFF7B5FFBDE8F08122
:104C200010B502460B46916801E009685B1E09B1A8
:104C3000002BFADC09B9002010BD486810B1D1E999
:104C400000042060086810B1D1E9004060609068FD
:104C5000884201D1086890600020086048600846DA
:104C6000EAE770B504460D4629462046FFF7D8FF0F
:104C70000646FEF741FD70BD2DE9F04105460F46A1
:104C80000026AC6801E0761C24682CB13946206A05
:104C9000FEF7D3FC0028F6D12CB131462846FFF7A9
:104CA000BFFFBDE8F0810020FBE770B504460D466C
:104CB00029462046FFF7E0FF0646FEF71DFD70BDC2
:104CC0002DE9F04106460F461446B56801E02D680F
:104CD0007F1E0DB1002FFADC2DB921463046FFF7BB
:104CE0003DFFBDE8F0812560686860606C60B06879
:104CF000A84201D1B46001E06068046000BFF0E741
:104D00002DE9F04106460F461446B56801E02D68CE
:104D10007F1E0DB1002FFADC0DB9BDE8F0812868C7
:104D2000206068686060206808B120684460B068EE
:104D3000A84201D1B46001E06068046000206860AE
:104D400028602846FEF7D8FC00BFE6E72DE9F041D1
:104D500005460E4617464FF00008AC6802E008F121
:104D6000010824682CB13146206AFEF766FC002851
:104D7000F5D144B13046FEF786FC38623A464146EA
:104D80002846FFF7BDFFBDE8F08110B5FEF7A7FC90
:104D900004460CB10220E060204610BD10B5FEF7BD
:104DA0009EFC04460CB10120E060204610BD10B509
:104DB000FEF795FC04460CB10020E060204610BDD3
:104DC00070B50546FEF78BFC044624B10DB10120F9
:104DD00000E00020E060204670BD70B505460E463C
:104DE000FEF77DFC044644B10320E060C4E90656AA
:104DF0002846314603F03CFD6061204670BD70B529
:104E00000546FEF76CFC04462CB10420E060284601
:104E1000FEF739FC2061204670BD10B5FEF75FFC3F
:104E200004460CB10520E060204610BD10B5FEF729
:104E300056FC04460CB10620E060204610BD2DE96A
:104E4000F05F81468A460025AB46FFF7E6FF06463F
:104E5000002410E059F8240003F067FD0746FFF72F
:104E6000BCFF05460CB9B56003E029465846FFF77C
:104E70005AFEAB46641C0EB15445EBDB3046BDE830
:104E8000F09F2DE9F05F81468A460025AB46FFF78B
:104E9000C4FF0646002410E059F8240004F0A8F8E6
:104EA0000746FFF79AFF05460CB9B56003E02946AF
:104EB0005846FFF738FEAB46641C0EB15445EBDB99
:104EC0003046BDE8F09F2DE9F047074688460025AB
:104ED000A946FFF7A2FF0646002410E007EBC40036
:104EE000D0E900211046FFF778FF05460CB9B56000
:104EF00003E029464846FFF716FEA946641C0EB19A
:104F00004445EBDB3046BDE8F0872DE9F047074626
:104F100088460025A946FFF780FF064600240DE0DD
:104F200057F82400FFF76BFF05460CB9B56003E0A6
:104F300029464846FFF7F7FDA946641C0EB14445D3
:104F4000EEDB3046BDE8F0872DE9F047054689469F
:104F50004FF0000815B90020BDE8F087FEF7BFFB51
:104F600004460CB90020F7E7E86820F48070E060A0
:104F700068696061D5E90601C4E90601286968B17C
:104F80002869FEF780FB2061206938B9204601E0DE
:104F900040000020FEF7B0FB0020DDE7286A50B19A
:104FA000286AFEF770FB2062206A20B92046FEF7CF
:104FB000A3FB0020D0E7B9F1000F01D12046CBE7D9
:104FC000AF6816E001213846FFF7BEFF064626B956
:104FD0002046FEF791FB0020BEE7B8F1000F05D098
:104FE000C8F80060C6F80480B04601E0A660B0468C
:104FF0003F68002FE6D12046AEE7014655E0027833
:10500000202A01D1401C50E00278092A01D1401C1D
:105010004BE002780D2A01D1401C46E002780A2AB2
:1050200001D1401C41E002782F2A0BD142782F2A6F
:1050300008D100E0401C0278002A36D002780A2A03
:1050400033D0F7E702782F2A0ED142782A2A0BD1E3
:1050500000E0401C02782AB102782A2AF9D142786D
:105060002F2AF6D1801C20E00278222A19D110F8CC
:10507000012B01F8012B0AE002785C2A03D110F819
:10508000012B01F8012B10F8012B01F8012B0278FC
:1050900012B10278222AEFD110F8012B01F8012B6E
:1050A00003E010F8012B01F8012B0278002AA6D1A9
:1050B0000A70704770B503460C4603E014F8015BB4
:1050C00003F8015B151EA2F10102F7D170BD30B5E6
:1050D000034601E003F8011B141EA2F10102F9D1FD
:1050E00030BD00B55D494FF48062C8680021FFF70C
:1050F000EEFF5A494FF4405288680021FFF7E7FF5E
:1051000001205649087400BD0022002106E05348E2
:10511000C06830F8110000B1521C491CB1F5007F85
:10512000F5D364205043C0F3472070472DE9F04188
:1051300006460024A0464948007C10B94749086843
:1051400080471EB94FF0FF30BDE8F0811820B6FB54
:10515000F0F085B21820B6FBF0F100FB116008B149
:10516000681C85B240F2FF141CE03C48C06830F86F
:10517000140020B908F101001FFA80F801E04FF097
:105180000008A8450DD1002705E03448C068E119A2
:1051900020F811507F1CAF42F7D304EB4400C0004D
:1051A000D2E7641E002CE0DA4FF0FF30CCE770B598
:1051B00005462A48007C20B9284908688047012014
:1051C00070BDB5F5405F13D21820B5FBF0F1234850
:1051D000C06830F81120002406E000201F4BDB6877
:1051E0000E1923F81600641C9442F6DB0020E7E752
:1051F0000220E5E770B5044604B970BD1748806821
:10520000251A2846FFF7D3FF00BFF6E770B505461D
:105210002846FFF78BFF0446601C08B9002070BDCC
:105220000E4880682044FAE770B506460C462046D2
:10523000FFF77CFF0546681C08B9002070BD0749D0
:105240008968481922463146FFF734FF3046FFF798
:10525000D1FF024880682844F0E7000044000020A5
:1052600010B5044600F056FD0068005DC00602D58A
:1052700004F1200010BD204610BD00001CB50C46F6
:10528000064B7B4469460090204601F004F8044632
:105290000020694601F012F820461CBD37100000BE
:1052A0007CB51D4616460C00009001D02044401EDF
:1052B000074B7B442A4669460190304600F0EBFFDD
:1052C00005461CB10020694600F0F8FF28467CBD69
:1052D000111000000FB4044910B503AA029801F0A0
:1052E00011F810BC5DF814FB1C0000200FB41CB5B5
:1052F000084B06AA7B4469460090059800F0CBFF56
:1053000004460020694600F0D9FF20461CBC5DF829
:1053100014FB0000C50F000070B5044685690068E5
:10532000C10601D5302600E02026C00707D070BD99
:10533000D4E9012130469047206A401C20626D1E4E
:10534000F6D570BD70B5044685690078C00707D1F1
:1053500070BDD4E9012120209047206A401C2062C2
:105360006D1EF6D570BD70B50C460546012A05D0F8
:105370002878800600D5EA69002302E0012305E0D1
:105380005B1C934202D2E05C0028F9D1A869E618C0
:10539000C01AA861286A184428622846FFF7BCFF93
:1053A00004E0D5E9012114F8010B9047B442F8D389
:1053B0002846FFF7C7FF70BD2DE9F04106460024DF
:1053C00010687529314616A510D000F0D1FC0028D0
:1053D00002DA404213A507E031688A0701D512A519
:1053E00002E0490704D511A5012401E000F0C9FC41
:1053F00000210A2206F1240709E0B0FBF2FCB0FB11
:10540000F2F302FB1C00303078541846491C002887
:10541000F3D123462A463046BDE8F04100F0BABC3D
:10542000000000002D0000002B0000002000000004
:10543000F0B40D460188090502D5214C7C4402E0F8
:105440001F4C7C440E34002100F1240608E002F0D9
:105450000F071209E75D42EA03721B097754491CE2
:1054600052EA0307F3D102780023120704D5702D06
:1054700006D009B1022311342246F0BC00F08ABCE8
:1054800001231034F8E770B504460D462146106834
:1054900000F077FC024629462046BDE87040002314
:1054A000C6E7D21D22F00703D3E90023C0E7036853
:1054B000126843F0200303600823C3610023B7E7A9
:1054C000EA4100002DE9F05F894604464FF0000AEA
:1054D000DFF874B1FB44C0F820A02046E16888479B
:1054E000002874D0252806D0D4E901219047206AED
:1054F000401C2062F1E700265F462046E1688847AD
:105500002028054607DB312D05D2781910F8200C2C
:1055100008B10643F1E7B00701D526F00406C4F848
:105520001CA00027C4F818A02A2D09D0284601F095
:1055300065FF38B304EB8708303DC8F8185019E010
:1055400059F8041B204604EB87029161E168884703
:10555000012F054618D1E069002820DA26F0200640
:105560001DE0D8F8180000EB800005EB4000303853
:10557000C8F818002046E1688847054601F03EFF5C
:105580000028EED1012F0AD02E2D08D12046E16847
:1055900088477F1C0546022F46F02006C4DBA06921
:1055A000002803DA404246F00106A061F00701D06E
:1055B00026F010066C2D0BD0682D09D04C2D39D05B
:1055C0006A2D35D0742D35D07A2D33D016E038E0E1
:1055D000E1682F4620468847B842054609D16C2F1E
:1055E00026D04FF48060E168064320468847054690
:1055F00004E06C2F1AD04FF4807006430DB3A5F170
:105600004100192802D8203546F400664A4629464A
:10561000204626604E46FAF7A9FD80B101280BD03E
:10562000F61D26F0070000F1080956E74020E4E7E0
:105630008020D8E70020D6E706F104094DE7284688
:1056400052E7206ABDE8F09F7A410000401ECAB2CE
:1056500010F8011F8A4202D00029F9D100207047BA
:1056600030B505460B462A4613F8014B12F8010BDC
:1056700008B1A042F8D01CB1002802D06D1CF1E79F
:10568000284630BD40EA0103024630B59B0710D1E1
:105690004FF0013400E008C208C91D1B9D4315EA04
:1056A000C41FF8D013F0FF0102F8011B0DD01B0A34
:1056B000F8E711F8013B002B02F8013B05D011F887
:1056C000013B002B02F8013BF3D130BD10B5431C68
:1056D00002E010F8011B71B18107FAD14FF00132DD
:1056E00002C88C1A8C4314EAC211F9D0C01A0A06F7
:1056F00003D0C01E10BDC01A10BD0A0401D0801E08
:1057000010BD0902FCD0401E10BD40EA010370B577
:105710009B072ED14FF00136042A2AD308C810C99E
:105720009D1B9D43121F15EAC61517D0D8B2E1B2D2
:10573000401A50EA056110D198B2A1B2401A50EA5D
:1057400005410AD123F07F4024F07F41401A50EAFE
:10575000052102D1180EA0EB146070BDA342DBD06E
:1057600018BA21BA884201D9012070BD4FF0FF302C
:1057700070BD0AB9002070BD10F8013B11F8014B53
:1057800063B1A3420AD1521E08D010F8013B11F8B0
:10579000014B1BB1A34201D1521EEDD1181B70BDAC
:1057A000032A40F2308010F0030C00F0158011F84D
:1057B000013BBCF1020F624498BF11F801CB00F825
:1057C000013B38BF11F8013BA2F1040298BF00F879
:1057D00001CB38BF00F8013B11F0030300F0258036
:1057E000083AC0F0088051F8043B083A51F804CB5D
:1057F000A0E80810F5E7121D5CBF51F8043B40F823
:10580000043BAFF30080D20724BF11F8013B11F82D
:1058100001CB48BF11F8012B24BF00F8013B00F871
:1058200001CB48BF00F8012B704710B5203AC0F0FB
:105830000B80B1E81850203AA0E81850B1E8185091
:10584000A0E81850BFF4F5AF5FEA027C24BFB1E8CE
:105850001850A0E8185044BF18C918C0BDE810403F
:105860005FEA827C24BF51F8043B40F8043B08BF48
:105870007047D20728BF31F8023B48BF11F8012B0F
:1058800028BF20F8023B48BF00F8012B70474FF0BB
:1058900000020429C0F0128010F0030C00F01B80FD
:1058A000CCF1040CBCF1020F18BF00F8012BA8BF0B
:1058B00020F8022BA1EB0C0100F00DB85FEAC17CCF
:1058C00024BF00F8012B00F8012B48BF00F8012B82
:1058D00070474FF0000200B51346944696462039B3
:1058E00022BFA0E80C50A0E80C50B1F12001BFF499
:1058F000F7AF090728BFA0E80C5048BF0CC05DF8FF
:1059000004EB890028BF40F8042B08BF704748BF4C
:1059100020F8022B11F0804F18BF00F8012B7047C0
:105920004FF0013C50F8042B51F8043B9A4221D12E
:10593000A2EB0C03934313EACC1317D150F8042BBA
:1059400051F8043B9A4215D1A2EB0C03934313EA9E
:10595000CC130BD150F8042B51F8043B9A4209D1D7
:10596000A2EB0C03934313EACC13DBD04FF00000FF
:10597000704700BFD01A01BAB1FA81F101F01801E5
:1059800022FA01F0CB40C1F12001DBB2C0B2C01A53
:105990002CFA01F3D11A914311EAC311E6D17047F1
:1059A000014900F095BD0000D83E002070B50546C5
:1059B00001B90721541A241DB4F5B67F09DD286802
:1059C00000F05DF9A04204DC2868401C286001203A
:1059D00070BD002C05DA2868401E286000F04FF9E1
:1059E0000444072094FBF0F0401C70BD2DE9F04FFB
:1059F0001F4615468B468246002689B000F092F974
:105A0000D0F810800024BBF1000F70D015F8010B06
:105A100010B125280DD10FE024B1641E06A850F85E
:105A20002450F3E7002130460AF8061009B0BDE81B
:105A3000F08F0AF80600C7E0E94615F8010B59286F
:105A400070D023DC49286ED014DC44286DD008DCEB
:105A50002528EED041283ED0422849D043282CD1D9
:105A600056E04528E9D0462869D0472876D048280E
:105A700023D17AE04D380C281FD2DFE800F0881ED1
:105A8000061E1E9BA0A9B3B5C1CFD6E75A38212860
:105A900013D2DFE800F0111212121212121A263776
:105AA000455012592612741212797E1280128912F0
:105AB00096A212B3BDCB1100A8E725200AF8060074
:105AC000761C5E4513D26D1EA0E7D8F80010BA69A7
:105AD000D8F8240011E0D8F80410BA69D8F82800E2
